{
  "contractName": "EHR",
  "abi": [
    {
      "anonymous": false,
      "inputs": [
        {
          "indexed": false,
          "internalType": "address",
          "name": "doctorId",
          "type": "address"
        }
      ],
      "name": "DoctorAdded",
      "type": "event"
    },
    {
      "anonymous": false,
      "inputs": [
        {
          "indexed": false,
          "internalType": "address",
          "name": "patientId",
          "type": "address"
        }
      ],
      "name": "PatientAdded",
      "type": "event"
    },
    {
      "anonymous": false,
      "inputs": [
        {
          "indexed": false,
          "internalType": "string",
          "name": "cid",
          "type": "string"
        },
        {
          "indexed": false,
          "internalType": "address",
          "name": "patientId",
          "type": "address"
        },
        {
          "indexed": false,
          "internalType": "address",
          "name": "doctorId",
          "type": "address"
        }
      ],
      "name": "RecordAdded",
      "type": "event"
    },
    {
      "inputs": [
        {
          "internalType": "address",
          "name": "",
          "type": "address"
        }
      ],
      "name": "doctors",
      "outputs": [
        {
          "internalType": "address",
          "name": "id",
          "type": "address"
        }
      ],
      "stateMutability": "view",
      "type": "function",
      "constant": true
    },
    {
      "inputs": [
        {
          "internalType": "address",
          "name": "",
          "type": "address"
        }
      ],
      "name": "patients",
      "outputs": [
        {
          "internalType": "address",
          "name": "id",
          "type": "address"
        }
      ],
      "stateMutability": "view",
      "type": "function",
      "constant": true
    },
    {
      "inputs": [
        {
          "internalType": "address",
          "name": "_patientId",
          "type": "address"
        }
      ],
      "name": "addPatient",
      "outputs": [],
      "stateMutability": "nonpayable",
      "type": "function"
    },
    {
      "inputs": [],
      "name": "addDoctor",
      "outputs": [],
      "stateMutability": "nonpayable",
      "type": "function"
    },
    {
      "inputs": [
        {
          "internalType": "string",
          "name": "_cid",
          "type": "string"
        },
        {
          "internalType": "string",
          "name": "_fileName",
          "type": "string"
        },
        {
          "internalType": "address",
          "name": "_patientId",
          "type": "address"
        }
      ],
      "name": "addRecord",
      "outputs": [],
      "stateMutability": "nonpayable",
      "type": "function"
    },
    {
      "inputs": [
        {
          "internalType": "address",
          "name": "_patientId",
          "type": "address"
        }
      ],
      "name": "getRecords",
      "outputs": [
        {
          "components": [
            {
              "internalType": "string",
              "name": "cid",
              "type": "string"
            },
            {
              "internalType": "string",
              "name": "fileName",
              "type": "string"
            },
            {
              "internalType": "address",
              "name": "patientId",
              "type": "address"
            },
            {
              "internalType": "address",
              "name": "doctorId",
              "type": "address"
            },
            {
              "internalType": "uint256",
              "name": "timeAdded",
              "type": "uint256"
            }
          ],
          "internalType": "struct EHR.Record[]",
          "name": "",
          "type": "tuple[]"
        }
      ],
      "stateMutability": "view",
      "type": "function",
      "constant": true
    },
    {
      "inputs": [],
      "name": "getSenderRole",
      "outputs": [
        {
          "internalType": "string",
          "name": "",
          "type": "string"
        }
      ],
      "stateMutability": "view",
      "type": "function",
      "constant": true
    },
    {
      "inputs": [
        {
          "internalType": "address",
          "name": "_patientId",
          "type": "address"
        }
      ],
      "name": "getPatientExists",
      "outputs": [
        {
          "internalType": "bool",
          "name": "",
          "type": "bool"
        }
      ],
      "stateMutability": "view",
      "type": "function",
      "constant": true
    }
  ],
  "bytecode": "0x608060405234801561001057600080fd5b50611c24806100206000396000f3fe608060405234801561001057600080fd5b50600436106100885760003560e01c806375a3f4e31161005b57806375a3f4e3146101135780637bc769ed1461011d578063a0076e841461014d578063a9583c221461017d57610088565b80630869cfbc1461008d5780633a88162e146100bd57806356daecb3146100db5780636d263ceb146100f7575b600080fd5b6100a760048036038101906100a291906111e4565b6101ad565b6040516100b49190611220565b60405180910390f35b6100c56101eb565b6040516100d291906112cb565b60405180910390f35b6100f560048036038101906100f09190611422565b6103cc565b005b610111600480360381019061010c91906111e4565b610736565b005b61011b61098f565b005b610137600480360381019061013291906111e4565b610b19565b60405161014491906114c8565b60405180910390f35b610167600480360381019061016291906111e4565b610c82565b6040516101749190611694565b60405180910390f35b610197600480360381019061019291906111e4565b611134565b6040516101a49190611220565b60405180910390f35b60006020528060005260406000206000915090508060000160009054906101000a900473ffffffffffffffffffffffffffffffffffffffff16905081565b60603373ffffffffffffffffffffffffffffffffffffffff16600160003373ffffffffffffffffffffffffffffffffffffffff1673ffffffffffffffffffffffffffffffffffffffff16815260200190815260200160002060000160009054906101000a900473ffffffffffffffffffffffffffffffffffffffff1673ffffffffffffffffffffffffffffffffffffffff16036102bf576040518060400160405280600681526020017f646f63746f72000000000000000000000000000000000000000000000000000081525090506103c9565b3373ffffffffffffffffffffffffffffffffffffffff166000803373ffffffffffffffffffffffffffffffffffffffff1673ffffffffffffffffffffffffffffffffffffffff16815260200190815260200160002060000160009054906101000a900473ffffffffffffffffffffffffffffffffffffffff1673ffffffffffffffffffffffffffffffffffffffff1603610390576040518060400160405280600781526020017f70617469656e740000000000000000000000000000000000000000000000000081525090506103c9565b6040518060400160405280600781526020017f756e6b6e6f776e0000000000000000000000000000000000000000000000000081525090505b90565b3373ffffffffffffffffffffffffffffffffffffffff16600160003373ffffffffffffffffffffffffffffffffffffffff1673ffffffffffffffffffffffffffffffffffffffff16815260200190815260200160002060000160009054906101000a900473ffffffffffffffffffffffffffffffffffffffff1673ffffffffffffffffffffffffffffffffffffffff161461049c576040517f08c379a000000000000000000000000000000000000000000000000000000000815260040161049390611702565b60405180910390fd5b808073ffffffffffffffffffffffffffffffffffffffff166000808373ffffffffffffffffffffffffffffffffffffffff1673ffffffffffffffffffffffffffffffffffffffff16815260200190815260200160002060000160009054906101000a900473ffffffffffffffffffffffffffffffffffffffff1673ffffffffffffffffffffffffffffffffffffffff161461056c576040517f08c379a00000000000000000000000000000000000000000000000000000000081526004016105639061176e565b60405180910390fd5b60006040518060a001604052808681526020018581526020018473ffffffffffffffffffffffffffffffffffffffff1681526020013373ffffffffffffffffffffffffffffffffffffffff1681526020014281525090506000808473ffffffffffffffffffffffffffffffffffffffff1673ffffffffffffffffffffffffffffffffffffffff1681526020019081526020016000206001018190806001815401808255809150506001900390600052602060002090600502016000909190919091506000820151816000019081610643919061199a565b506020820151816001019081610659919061199a565b5060408201518160020160006101000a81548173ffffffffffffffffffffffffffffffffffffffff021916908373ffffffffffffffffffffffffffffffffffffffff16021790555060608201518160030160006101000a81548173ffffffffffffffffffffffffffffffffffffffff021916908373ffffffffffffffffffffffffffffffffffffffff1602179055506080820151816004015550507f79439a93ba0b8067e556b3942a78ac58d991c58e2e23041c4e7aa1c446fc118885843360405161072793929190611a6c565b60405180910390a15050505050565b3373ffffffffffffffffffffffffffffffffffffffff16600160003373ffffffffffffffffffffffffffffffffffffffff1673ffffffffffffffffffffffffffffffffffffffff16815260200190815260200160002060000160009054906101000a900473ffffffffffffffffffffffffffffffffffffffff1673ffffffffffffffffffffffffffffffffffffffff1614610806576040517f08c379a00000000000000000000000000000000000000000000000000000000081526004016107fd90611702565b60405180910390fd5b8073ffffffffffffffffffffffffffffffffffffffff166000808373ffffffffffffffffffffffffffffffffffffffff1673ffffffffffffffffffffffffffffffffffffffff16815260200190815260200160002060000160009054906101000a900473ffffffffffffffffffffffffffffffffffffffff1673ffffffffffffffffffffffffffffffffffffffff16036108d5576040517f08c379a00000000000000000000000000000000000000000000000000000000081526004016108cc90611af6565b60405180910390fd5b806000808373ffffffffffffffffffffffffffffffffffffffff1673ffffffffffffffffffffffffffffffffffffffff16815260200190815260200160002060000160006101000a81548173ffffffffffffffffffffffffffffffffffffffff021916908373ffffffffffffffffffffffffffffffffffffffff1602179055507fa58cff07db0adda3ab7a40bd2f18ab57210bf38391a52ffd2e8eee6b8bdec71a816040516109849190611220565b60405180910390a150565b3373ffffffffffffffffffffffffffffffffffffffff16600160003373ffffffffffffffffffffffffffffffffffffffff1673ffffffffffffffffffffffffffffffffffffffff16815260200190815260200160002060000160009054906101000a900473ffffffffffffffffffffffffffffffffffffffff1673ffffffffffffffffffffffffffffffffffffffff1603610a5f576040517f08c379a0000000000000000000000000000000000000000000000000000000008152600401610a5690611b62565b60405180910390fd5b33600160003373ffffffffffffffffffffffffffffffffffffffff1673ffffffffffffffffffffffffffffffffffffffff16815260200190815260200160002060000160006101000a81548173ffffffffffffffffffffffffffffffffffffffff021916908373ffffffffffffffffffffffffffffffffffffffff1602179055507f69908b2e63170aa89ef89719bbe3b4c92cccc38653968ab25f4464eff7c28ac833604051610b0f9190611220565b60405180910390a1565b60003373ffffffffffffffffffffffffffffffffffffffff16600160003373ffffffffffffffffffffffffffffffffffffffff1673ffffffffffffffffffffffffffffffffffffffff16815260200190815260200160002060000160009054906101000a900473ffffffffffffffffffffffffffffffffffffffff1673ffffffffffffffffffffffffffffffffffffffff1614610beb576040517f08c379a0000000000000000000000000000000000000000000000000000000008152600401610be290611702565b60405180910390fd5b8173ffffffffffffffffffffffffffffffffffffffff166000808473ffffffffffffffffffffffffffffffffffffffff1673ffffffffffffffffffffffffffffffffffffffff16815260200190815260200160002060000160009054906101000a900473ffffffffffffffffffffffffffffffffffffffff1673ffffffffffffffffffffffffffffffffffffffff16149050919050565b60603373ffffffffffffffffffffffffffffffffffffffff16600160003373ffffffffffffffffffffffffffffffffffffffff1673ffffffffffffffffffffffffffffffffffffffff16815260200190815260200160002060000160009054906101000a900473ffffffffffffffffffffffffffffffffffffffff1673ffffffffffffffffffffffffffffffffffffffff161480610dac57503373ffffffffffffffffffffffffffffffffffffffff166000803373ffffffffffffffffffffffffffffffffffffffff1673ffffffffffffffffffffffffffffffffffffffff16815260200190815260200160002060000160009054906101000a900473ffffffffffffffffffffffffffffffffffffffff1673ffffffffffffffffffffffffffffffffffffffff16145b610deb576040517f08c379a0000000000000000000000000000000000000000000000000000000008152600401610de290611bce565b60405180910390fd5b818073ffffffffffffffffffffffffffffffffffffffff166000808373ffffffffffffffffffffffffffffffffffffffff1673ffffffffffffffffffffffffffffffffffffffff16815260200190815260200160002060000160009054906101000a900473ffffffffffffffffffffffffffffffffffffffff1673ffffffffffffffffffffffffffffffffffffffff1614610ebb576040517f08c379a0000000000000000000000000000000000000000000000000000000008152600401610eb29061176e565b60405180910390fd5b6000808473ffffffffffffffffffffffffffffffffffffffff1673ffffffffffffffffffffffffffffffffffffffff168152602001908152602001600020600101805480602002602001604051908101604052809291908181526020016000905b8282101561112857838290600052602060002090600502016040518060a0016040529081600082018054610f4f906117bd565b80601f0160208091040260200160405190810160405280929190818152602001828054610f7b906117bd565b8015610fc85780601f10610f9d57610100808354040283529160200191610fc8565b820191906000526020600020905b815481529060010190602001808311610fab57829003601f168201915b50505050508152602001600182018054610fe1906117bd565b80601f016020809104026020016040519081016040528092919081815260200182805461100d906117bd565b801561105a5780601f1061102f5761010080835404028352916020019161105a565b820191906000526020600020905b81548152906001019060200180831161103d57829003601f168201915b505050505081526020016002820160009054906101000a900473ffffffffffffffffffffffffffffffffffffffff1673ffffffffffffffffffffffffffffffffffffffff1673ffffffffffffffffffffffffffffffffffffffff1681526020016003820160009054906101000a900473ffffffffffffffffffffffffffffffffffffffff1673ffffffffffffffffffffffffffffffffffffffff1673ffffffffffffffffffffffffffffffffffffffff16815260200160048201548152505081526020019060010190610f1c565b50505050915050919050565b60016020528060005260406000206000915090508060000160009054906101000a900473ffffffffffffffffffffffffffffffffffffffff16905081565b6000604051905090565b600080fd5b600080fd5b600073ffffffffffffffffffffffffffffffffffffffff82169050919050565b60006111b182611186565b9050919050565b6111c1816111a6565b81146111cc57600080fd5b50565b6000813590506111de816111b8565b92915050565b6000602082840312156111fa576111f961117c565b5b6000611208848285016111cf565b91505092915050565b61121a816111a6565b82525050565b60006020820190506112356000830184611211565b92915050565b600081519050919050565b600082825260208201905092915050565b60005b8381101561127557808201518184015260208101905061125a565b60008484015250505050565b6000601f19601f8301169050919050565b600061129d8261123b565b6112a78185611246565b93506112b7818560208601611257565b6112c081611281565b840191505092915050565b600060208201905081810360008301526112e58184611292565b905092915050565b600080fd5b600080fd5b7f4e487b7100000000000000000000000000000000000000000000000000000000600052604160045260246000fd5b61132f82611281565b810181811067ffffffffffffffff8211171561134e5761134d6112f7565b5b80604052505050565b6000611361611172565b905061136d8282611326565b919050565b600067ffffffffffffffff82111561138d5761138c6112f7565b5b61139682611281565b9050602081019050919050565b82818337600083830152505050565b60006113c56113c084611372565b611357565b9050828152602081018484840111156113e1576113e06112f2565b5b6113ec8482856113a3565b509392505050565b600082601f830112611409576114086112ed565b5b81356114198482602086016113b2565b91505092915050565b60008060006060848603121561143b5761143a61117c565b5b600084013567ffffffffffffffff81111561145957611458611181565b5b611465868287016113f4565b935050602084013567ffffffffffffffff81111561148657611485611181565b5b611492868287016113f4565b92505060406114a3868287016111cf565b9150509250925092565b60008115159050919050565b6114c2816114ad565b82525050565b60006020820190506114dd60008301846114b9565b92915050565b600081519050919050565b600082825260208201905092915050565b6000819050602082019050919050565b600082825260208201905092915050565b600061152b8261123b565b611535818561150f565b9350611545818560208601611257565b61154e81611281565b840191505092915050565b611562816111a6565b82525050565b6000819050919050565b61157b81611568565b82525050565b600060a083016000830151848203600086015261159e8282611520565b915050602083015184820360208601526115b88282611520565b91505060408301516115cd6040860182611559565b5060608301516115e06060860182611559565b5060808301516115f36080860182611572565b508091505092915050565b600061160a8383611581565b905092915050565b6000602082019050919050565b600061162a826114e3565b61163481856114ee565b935083602082028501611646856114ff565b8060005b85811015611682578484038952815161166385826115fe565b945061166e83611612565b925060208a0199505060018101905061164a565b50829750879550505050505092915050565b600060208201905081810360008301526116ae818461161f565b905092915050565b7f53656e646572206973206e6f74206120646f63746f7200000000000000000000600082015250565b60006116ec601683611246565b91506116f7826116b6565b602082019050919050565b6000602082019050818103600083015261171b816116df565b9050919050565b7f50617469656e7420646f6573206e6f7420657869737400000000000000000000600082015250565b6000611758601683611246565b915061176382611722565b602082019050919050565b600060208201905081810360008301526117878161174b565b9050919050565b7f4e487b7100000000000000000000000000000000000000000000000000000000600052602260045260246000fd5b600060028204905060018216806117d557607f821691505b6020821081036117e8576117e761178e565b5b50919050565b60008190508160005260206000209050919050565b60006020601f8301049050919050565b600082821b905092915050565b6000600883026118507fffffffffffffffffffffffffffffffffffffffffffffffffffffffffffffffff82611813565b61185a8683611813565b95508019841693508086168417925050509392505050565b6000819050919050565b600061189761189261188d84611568565b611872565b611568565b9050919050565b6000819050919050565b6118b18361187c565b6118c56118bd8261189e565b848454611820565b825550505050565b600090565b6118da6118cd565b6118e58184846118a8565b505050565b5b81811015611909576118fe6000826118d2565b6001810190506118eb565b5050565b601f82111561194e5761191f816117ee565b61192884611803565b81016020851015611937578190505b61194b61194385611803565b8301826118ea565b50505b505050565b600082821c905092915050565b600061197160001984600802611953565b1980831691505092915050565b600061198a8383611960565b9150826002028217905092915050565b6119a38261123b565b67ffffffffffffffff8111156119bc576119bb6112f7565b5b6119c682546117bd565b6119d182828561190d565b600060209050601f831160018114611a0457600084156119f2578287015190505b6119fc858261197e565b865550611a64565b601f198416611a12866117ee565b60005b82811015611a3a57848901518255600182019150602085019450602081019050611a15565b86831015611a575784890151611a53601f891682611960565b8355505b6001600288020188555050505b505050505050565b60006060820190508181036000830152611a868186611292565b9050611a956020830185611211565b611aa26040830184611211565b949350505050565b7f546869732070617469656e7420616c7265616479206578697374732e00000000600082015250565b6000611ae0601c83611246565b9150611aeb82611aaa565b602082019050919050565b60006020820190508181036000830152611b0f81611ad3565b9050919050565b7f5468697320646f63746f7220616c7265616479206578697374732e0000000000600082015250565b6000611b4c601b83611246565b9150611b5782611b16565b602082019050919050565b60006020820190508181036000830152611b7b81611b3f565b9050919050565b7f53656e64657220646f6573206e6f742065786973740000000000000000000000600082015250565b6000611bb8601583611246565b9150611bc382611b82565b602082019050919050565b60006020820190508181036000830152611be781611bab565b905091905056fea2646970667358221220bc4144674e642d67f013ca51bbb208c924db340fd4d0a8aaae81c1cddcda69bf64736f6c63430008110033",
  "immutableReferences": {},
  "source": "// SPDX-License-Identifier: GPL-3.0-or-later\r\npragma solidity >=0.4.22 <0.9.0;\r\n\r\ncontract EHR {\r\n    struct Record {\r\n        string cid;\r\n        string fileName;\r\n        address patientId;\r\n        address doctorId;\r\n        uint256 timeAdded;\r\n    }\r\n\r\n    struct Patient {\r\n        address id;\r\n        Record[] records;\r\n    }\r\n\r\n    struct Doctor {\r\n        address id;\r\n    }\r\n\r\n    mapping(address => Patient) public patients;\r\n    mapping(address => Doctor) public doctors;\r\n\r\n    event PatientAdded(address patientId);\r\n    event DoctorAdded(address doctorId);\r\n    event RecordAdded(string cid, address patientId, address doctorId);\r\n\r\n    // modifiers\r\n    modifier senderExists() {\r\n        require(\r\n            doctors[msg.sender].id == msg.sender ||\r\n                patients[msg.sender].id == msg.sender,\r\n            \"Sender does not exist\"\r\n        );\r\n        _;\r\n    }\r\n\r\n    modifier patientExists(address patientId) {\r\n        require(patients[patientId].id == patientId, \"Patient does not exist\");\r\n        _;\r\n    }\r\n\r\n    modifier senderIsDoctor() {\r\n        require(doctors[msg.sender].id == msg.sender, \"Sender is not a doctor\");\r\n        _;\r\n    }\r\n\r\n    // functions\r\n    function addPatient(address _patientId) public senderIsDoctor {\r\n        require(\r\n            patients[_patientId].id != _patientId,\r\n            \"This patient already exists.\"\r\n        );\r\n        patients[_patientId].id = _patientId;\r\n\r\n        emit PatientAdded(_patientId);\r\n    }\r\n\r\n    function addDoctor() public {\r\n        require(\r\n            doctors[msg.sender].id != msg.sender,\r\n            \"This doctor already exists.\"\r\n        );\r\n        doctors[msg.sender].id = msg.sender;\r\n\r\n        emit DoctorAdded(msg.sender);\r\n    }\r\n\r\n    function addRecord(\r\n        string memory _cid,\r\n        string memory _fileName,\r\n        address _patientId\r\n    ) public senderIsDoctor patientExists(_patientId) {\r\n        Record memory record = Record(\r\n            _cid,\r\n            _fileName,\r\n            _patientId,\r\n            msg.sender,\r\n            block.timestamp\r\n        );\r\n        patients[_patientId].records.push(record);\r\n\r\n        emit RecordAdded(_cid, _patientId, msg.sender);\r\n    }\r\n\r\n    function getRecords(\r\n        address _patientId\r\n    ) public view senderExists patientExists(_patientId) returns (Record[] memory) {\r\n        return patients[_patientId].records;\r\n    }\r\n\r\n    function getSenderRole() public view returns (string memory) {\r\n        if (doctors[msg.sender].id == msg.sender) {\r\n            return \"doctor\";\r\n        } else if (patients[msg.sender].id == msg.sender) {\r\n            return \"patient\";\r\n        } else {\r\n            return \"unknown\";\r\n        }\r\n    }\r\n\r\n    function getPatientExists(\r\n        address _patientId\r\n    ) public view senderIsDoctor returns (bool) {\r\n        return patients[_patientId].id == _patientId;\r\n    }\r\n}\r\n",
  "sourcePath": "E:\\Projects\\MobiCare\\backend\\GP_BE_ROSHETA\\contracts\\EHR.sol",
  "compiler": {
    "name": "solc",
    "version": "0.8.17+commit.8df45f5f.Emscripten.clang"
  },
  "schemaVersion": "3.4.12",
  "updatedAt": "2023-03-13T22:04:13.181Z",
  "networkType": "ethereum",
  "devdoc": {
    "kind": "dev",
    "methods": {},
    "version": 1
  },
  "userdoc": {
    "kind": "user",
    "methods": {},
    "version": 1
  }
}