{
  "contractName": "EHR",
  "abi": [
    {
      "anonymous": false,
      "inputs": [
        {
          "indexed": false,
          "internalType": "address",
          "name": "doctorId",
          "type": "address"
        }
      ],
      "name": "DoctorAdded",
      "type": "event"
    },
    {
      "anonymous": false,
      "inputs": [
        {
          "indexed": false,
          "internalType": "address",
          "name": "patientId",
          "type": "address"
        }
      ],
      "name": "PatientAdded",
      "type": "event"
    },
    {
      "anonymous": false,
      "inputs": [
        {
          "indexed": false,
          "internalType": "string",
          "name": "cid",
          "type": "string"
        },
        {
          "indexed": false,
          "internalType": "address",
          "name": "patientId",
          "type": "address"
        },
        {
          "indexed": false,
          "internalType": "address",
          "name": "doctorId",
          "type": "address"
        }
      ],
      "name": "RecordAdded",
      "type": "event"
    },
    {
      "inputs": [
        {
          "internalType": "address",
          "name": "",
          "type": "address"
        }
      ],
      "name": "doctors",
      "outputs": [
        {
          "internalType": "address",
          "name": "id",
          "type": "address"
        }
      ],
      "stateMutability": "view",
      "type": "function",
      "constant": true
    },
    {
      "inputs": [
        {
          "internalType": "address",
          "name": "",
          "type": "address"
        }
      ],
      "name": "patients",
      "outputs": [
        {
          "internalType": "address",
          "name": "id",
          "type": "address"
        }
      ],
      "stateMutability": "view",
      "type": "function",
      "constant": true
    },
    {
      "inputs": [
        {
          "internalType": "address",
          "name": "_patientId",
          "type": "address"
        }
      ],
      "name": "addPatient",
      "outputs": [],
      "stateMutability": "nonpayable",
      "type": "function"
    },
    {
      "inputs": [
        {
          "internalType": "address",
          "name": "_patientId",
          "type": "address"
        }
      ],
      "name": "getPatient",
      "outputs": [
        {
          "components": [
            {
              "internalType": "address",
              "name": "id",
              "type": "address"
            },
            {
              "components": [
                {
                  "internalType": "string",
                  "name": "cid",
                  "type": "string"
                },
                {
                  "internalType": "string",
                  "name": "fileName",
                  "type": "string"
                },
                {
                  "internalType": "address",
                  "name": "patientId",
                  "type": "address"
                },
                {
                  "internalType": "address",
                  "name": "doctorId",
                  "type": "address"
                },
                {
                  "internalType": "uint256",
                  "name": "timeAdded",
                  "type": "uint256"
                }
              ],
              "internalType": "struct EHR.Record[]",
              "name": "records",
              "type": "tuple[]"
            }
          ],
          "internalType": "struct EHR.Patient",
          "name": "",
          "type": "tuple"
        }
      ],
      "stateMutability": "view",
      "type": "function",
      "constant": true
    },
    {
      "inputs": [
        {
          "internalType": "address",
          "name": "_patientId",
          "type": "address"
        }
      ],
      "name": "getPatientExists",
      "outputs": [
        {
          "internalType": "bool",
          "name": "",
          "type": "bool"
        }
      ],
      "stateMutability": "view",
      "type": "function",
      "constant": true
    },
    {
      "inputs": [],
      "name": "addDoctor",
      "outputs": [],
      "stateMutability": "nonpayable",
      "type": "function"
    },
    {
      "inputs": [
        {
          "internalType": "address",
          "name": "_doctorId",
          "type": "address"
        }
      ],
      "name": "getDoctor",
      "outputs": [
        {
          "components": [
            {
              "internalType": "address",
              "name": "id",
              "type": "address"
            }
          ],
          "internalType": "struct EHR.Doctor",
          "name": "",
          "type": "tuple"
        }
      ],
      "stateMutability": "view",
      "type": "function",
      "constant": true
    },
    {
      "inputs": [
        {
          "internalType": "string",
          "name": "_cid",
          "type": "string"
        },
        {
          "internalType": "string",
          "name": "_fileName",
          "type": "string"
        },
        {
          "internalType": "address",
          "name": "_patientId",
          "type": "address"
        }
      ],
      "name": "addRecord",
      "outputs": [],
      "stateMutability": "nonpayable",
      "type": "function"
    },
    {
      "inputs": [
        {
          "internalType": "address",
          "name": "_patientId",
          "type": "address"
        }
      ],
      "name": "getRecords",
      "outputs": [
        {
          "components": [
            {
              "internalType": "string",
              "name": "cid",
              "type": "string"
            },
            {
              "internalType": "string",
              "name": "fileName",
              "type": "string"
            },
            {
              "internalType": "address",
              "name": "patientId",
              "type": "address"
            },
            {
              "internalType": "address",
              "name": "doctorId",
              "type": "address"
            },
            {
              "internalType": "uint256",
              "name": "timeAdded",
              "type": "uint256"
            }
          ],
          "internalType": "struct EHR.Record[]",
          "name": "",
          "type": "tuple[]"
        }
      ],
      "stateMutability": "view",
      "type": "function",
      "constant": true
    },
    {
      "inputs": [],
      "name": "getSenderRole",
      "outputs": [
        {
          "internalType": "string",
          "name": "",
          "type": "string"
        }
      ],
      "stateMutability": "view",
      "type": "function",
      "constant": true
    }
  ],
  "bytecode": "0x608060405234801561001057600080fd5b5061241c806100206000396000f3fe608060405234801561001057600080fd5b506004361061009e5760003560e01c806375a3f4e31161006657806375a3f4e3146101595780637bc769ed14610163578063a0076e8414610193578063a9583c22146101c3578063b5368e20146101f35761009e565b80630869cfbc146100a35780632f04e064146100d35780633a88162e1461010357806356daecb3146101215780636d263ceb1461013d575b600080fd5b6100bd60048036038101906100b891906117e8565b610223565b6040516100ca9190611824565b60405180910390f35b6100ed60048036038101906100e891906117e8565b610261565b6040516100fa919061186a565b60405180910390f35b61010b6103e0565b6040516101189190611915565b60405180910390f35b61013b60048036038101906101369190611a6c565b6105c1565b005b610157600480360381019061015291906117e8565b61092b565b005b610161610b84565b005b61017d600480360381019061017891906117e8565b610d0e565b60405161018a9190611b12565b60405180910390f35b6101ad60048036038101906101a891906117e8565b610e77565b6040516101ba9190611ccf565b60405180910390f35b6101dd60048036038101906101d891906117e8565b611329565b6040516101ea9190611824565b60405180910390f35b61020d600480360381019061020891906117e8565b611367565b60405161021a9190611db4565b60405180910390f35b60006020528060005260406000206000915090508060000160009054906101000a900473ffffffffffffffffffffffffffffffffffffffff16905081565b61026961171d565b8173ffffffffffffffffffffffffffffffffffffffff16600160008473ffffffffffffffffffffffffffffffffffffffff1673ffffffffffffffffffffffffffffffffffffffff16815260200190815260200160002060000160009054906101000a900473ffffffffffffffffffffffffffffffffffffffff1673ffffffffffffffffffffffffffffffffffffffff1614610339576040517f08c379a000000000000000000000000000000000000000000000000000000000815260040161033090611e22565b60405180910390fd5b600160008373ffffffffffffffffffffffffffffffffffffffff1673ffffffffffffffffffffffffffffffffffffffff1681526020019081526020016000206040518060200160405290816000820160009054906101000a900473ffffffffffffffffffffffffffffffffffffffff1673ffffffffffffffffffffffffffffffffffffffff1673ffffffffffffffffffffffffffffffffffffffff16815250509050919050565b60603373ffffffffffffffffffffffffffffffffffffffff16600160003373ffffffffffffffffffffffffffffffffffffffff1673ffffffffffffffffffffffffffffffffffffffff16815260200190815260200160002060000160009054906101000a900473ffffffffffffffffffffffffffffffffffffffff1673ffffffffffffffffffffffffffffffffffffffff16036104b4576040518060400160405280600681526020017f646f63746f72000000000000000000000000000000000000000000000000000081525090506105be565b3373ffffffffffffffffffffffffffffffffffffffff166000803373ffffffffffffffffffffffffffffffffffffffff1673ffffffffffffffffffffffffffffffffffffffff16815260200190815260200160002060000160009054906101000a900473ffffffffffffffffffffffffffffffffffffffff1673ffffffffffffffffffffffffffffffffffffffff1603610585576040518060400160405280600781526020017f70617469656e740000000000000000000000000000000000000000000000000081525090506105be565b6040518060400160405280600781526020017f756e6b6e6f776e0000000000000000000000000000000000000000000000000081525090505b90565b3373ffffffffffffffffffffffffffffffffffffffff16600160003373ffffffffffffffffffffffffffffffffffffffff1673ffffffffffffffffffffffffffffffffffffffff16815260200190815260200160002060000160009054906101000a900473ffffffffffffffffffffffffffffffffffffffff1673ffffffffffffffffffffffffffffffffffffffff1614610691576040517f08c379a000000000000000000000000000000000000000000000000000000000815260040161068890611e8e565b60405180910390fd5b808073ffffffffffffffffffffffffffffffffffffffff166000808373ffffffffffffffffffffffffffffffffffffffff1673ffffffffffffffffffffffffffffffffffffffff16815260200190815260200160002060000160009054906101000a900473ffffffffffffffffffffffffffffffffffffffff1673ffffffffffffffffffffffffffffffffffffffff1614610761576040517f08c379a000000000000000000000000000000000000000000000000000000000815260040161075890611efa565b60405180910390fd5b60006040518060a001604052808681526020018581526020018473ffffffffffffffffffffffffffffffffffffffff1681526020013373ffffffffffffffffffffffffffffffffffffffff1681526020014281525090506000808473ffffffffffffffffffffffffffffffffffffffff1673ffffffffffffffffffffffffffffffffffffffff16815260200190815260200160002060010181908060018154018082558091505060019003906000526020600020906005020160009091909190915060008201518160000190816108389190612126565b50602082015181600101908161084e9190612126565b5060408201518160020160006101000a81548173ffffffffffffffffffffffffffffffffffffffff021916908373ffffffffffffffffffffffffffffffffffffffff16021790555060608201518160030160006101000a81548173ffffffffffffffffffffffffffffffffffffffff021916908373ffffffffffffffffffffffffffffffffffffffff1602179055506080820151816004015550507f79439a93ba0b8067e556b3942a78ac58d991c58e2e23041c4e7aa1c446fc118885843360405161091c939291906121f8565b60405180910390a15050505050565b3373ffffffffffffffffffffffffffffffffffffffff16600160003373ffffffffffffffffffffffffffffffffffffffff1673ffffffffffffffffffffffffffffffffffffffff16815260200190815260200160002060000160009054906101000a900473ffffffffffffffffffffffffffffffffffffffff1673ffffffffffffffffffffffffffffffffffffffff16146109fb576040517f08c379a00000000000000000000000000000000000000000000000000000000081526004016109f290611e8e565b60405180910390fd5b8073ffffffffffffffffffffffffffffffffffffffff166000808373ffffffffffffffffffffffffffffffffffffffff1673ffffffffffffffffffffffffffffffffffffffff16815260200190815260200160002060000160009054906101000a900473ffffffffffffffffffffffffffffffffffffffff1673ffffffffffffffffffffffffffffffffffffffff1603610aca576040517f08c379a0000000000000000000000000000000000000000000000000000000008152600401610ac190612282565b60405180910390fd5b806000808373ffffffffffffffffffffffffffffffffffffffff1673ffffffffffffffffffffffffffffffffffffffff16815260200190815260200160002060000160006101000a81548173ffffffffffffffffffffffffffffffffffffffff021916908373ffffffffffffffffffffffffffffffffffffffff1602179055507fa58cff07db0adda3ab7a40bd2f18ab57210bf38391a52ffd2e8eee6b8bdec71a81604051610b799190611824565b60405180910390a150565b3373ffffffffffffffffffffffffffffffffffffffff16600160003373ffffffffffffffffffffffffffffffffffffffff1673ffffffffffffffffffffffffffffffffffffffff16815260200190815260200160002060000160009054906101000a900473ffffffffffffffffffffffffffffffffffffffff1673ffffffffffffffffffffffffffffffffffffffff1603610c54576040517f08c379a0000000000000000000000000000000000000000000000000000000008152600401610c4b906122ee565b60405180910390fd5b33600160003373ffffffffffffffffffffffffffffffffffffffff1673ffffffffffffffffffffffffffffffffffffffff16815260200190815260200160002060000160006101000a81548173ffffffffffffffffffffffffffffffffffffffff021916908373ffffffffffffffffffffffffffffffffffffffff1602179055507f69908b2e63170aa89ef89719bbe3b4c92cccc38653968ab25f4464eff7c28ac833604051610d049190611824565b60405180910390a1565b60003373ffffffffffffffffffffffffffffffffffffffff16600160003373ffffffffffffffffffffffffffffffffffffffff1673ffffffffffffffffffffffffffffffffffffffff16815260200190815260200160002060000160009054906101000a900473ffffffffffffffffffffffffffffffffffffffff1673ffffffffffffffffffffffffffffffffffffffff1614610de0576040517f08c379a0000000000000000000000000000000000000000000000000000000008152600401610dd790611e8e565b60405180910390fd5b8173ffffffffffffffffffffffffffffffffffffffff166000808473ffffffffffffffffffffffffffffffffffffffff1673ffffffffffffffffffffffffffffffffffffffff16815260200190815260200160002060000160009054906101000a900473ffffffffffffffffffffffffffffffffffffffff1673ffffffffffffffffffffffffffffffffffffffff16149050919050565b60603373ffffffffffffffffffffffffffffffffffffffff16600160003373ffffffffffffffffffffffffffffffffffffffff1673ffffffffffffffffffffffffffffffffffffffff16815260200190815260200160002060000160009054906101000a900473ffffffffffffffffffffffffffffffffffffffff1673ffffffffffffffffffffffffffffffffffffffff161480610fa157503373ffffffffffffffffffffffffffffffffffffffff166000803373ffffffffffffffffffffffffffffffffffffffff1673ffffffffffffffffffffffffffffffffffffffff16815260200190815260200160002060000160009054906101000a900473ffffffffffffffffffffffffffffffffffffffff1673ffffffffffffffffffffffffffffffffffffffff16145b610fe0576040517f08c379a0000000000000000000000000000000000000000000000000000000008152600401610fd79061235a565b60405180910390fd5b818073ffffffffffffffffffffffffffffffffffffffff166000808373ffffffffffffffffffffffffffffffffffffffff1673ffffffffffffffffffffffffffffffffffffffff16815260200190815260200160002060000160009054906101000a900473ffffffffffffffffffffffffffffffffffffffff1673ffffffffffffffffffffffffffffffffffffffff16146110b0576040517f08c379a00000000000000000000000000000000000000000000000000000000081526004016110a790611efa565b60405180910390fd5b6000808473ffffffffffffffffffffffffffffffffffffffff1673ffffffffffffffffffffffffffffffffffffffff168152602001908152602001600020600101805480602002602001604051908101604052809291908181526020016000905b8282101561131d57838290600052602060002090600502016040518060a001604052908160008201805461114490611f49565b80601f016020809104026020016040519081016040528092919081815260200182805461117090611f49565b80156111bd5780601f10611192576101008083540402835291602001916111bd565b820191906000526020600020905b8154815290600101906020018083116111a057829003601f168201915b505050505081526020016001820180546111d690611f49565b80601f016020809104026020016040519081016040528092919081815260200182805461120290611f49565b801561124f5780601f106112245761010080835404028352916020019161124f565b820191906000526020600020905b81548152906001019060200180831161123257829003601f168201915b505050505081526020016002820160009054906101000a900473ffffffffffffffffffffffffffffffffffffffff1673ffffffffffffffffffffffffffffffffffffffff1673ffffffffffffffffffffffffffffffffffffffff1681526020016003820160009054906101000a900473ffffffffffffffffffffffffffffffffffffffff1673ffffffffffffffffffffffffffffffffffffffff1673ffffffffffffffffffffffffffffffffffffffff16815260200160048201548152505081526020019060010190611111565b50505050915050919050565b60016020528060005260406000206000915090508060000160009054906101000a900473ffffffffffffffffffffffffffffffffffffffff16905081565b61136f611746565b8173ffffffffffffffffffffffffffffffffffffffff166000808473ffffffffffffffffffffffffffffffffffffffff1673ffffffffffffffffffffffffffffffffffffffff16815260200190815260200160002060000160009054906101000a900473ffffffffffffffffffffffffffffffffffffffff1673ffffffffffffffffffffffffffffffffffffffff161461143e576040517f08c379a0000000000000000000000000000000000000000000000000000000008152600401611435906123c6565b60405180910390fd5b6000808373ffffffffffffffffffffffffffffffffffffffff1673ffffffffffffffffffffffffffffffffffffffff1681526020019081526020016000206040518060400160405290816000820160009054906101000a900473ffffffffffffffffffffffffffffffffffffffff1673ffffffffffffffffffffffffffffffffffffffff1673ffffffffffffffffffffffffffffffffffffffff16815260200160018201805480602002602001604051908101604052809291908181526020016000905b8282101561170e57838290600052602060002090600502016040518060a001604052908160008201805461153590611f49565b80601f016020809104026020016040519081016040528092919081815260200182805461156190611f49565b80156115ae5780601f10611583576101008083540402835291602001916115ae565b820191906000526020600020905b81548152906001019060200180831161159157829003601f168201915b505050505081526020016001820180546115c790611f49565b80601f01602080910402602001604051908101604052809291908181526020018280546115f390611f49565b80156116405780601f1061161557610100808354040283529160200191611640565b820191906000526020600020905b81548152906001019060200180831161162357829003601f168201915b505050505081526020016002820160009054906101000a900473ffffffffffffffffffffffffffffffffffffffff1673ffffffffffffffffffffffffffffffffffffffff1673ffffffffffffffffffffffffffffffffffffffff1681526020016003820160009054906101000a900473ffffffffffffffffffffffffffffffffffffffff1673ffffffffffffffffffffffffffffffffffffffff1673ffffffffffffffffffffffffffffffffffffffff16815260200160048201548152505081526020019060010190611502565b50505050815250509050919050565b6040518060200160405280600073ffffffffffffffffffffffffffffffffffffffff1681525090565b6040518060400160405280600073ffffffffffffffffffffffffffffffffffffffff168152602001606081525090565b6000604051905090565b600080fd5b600080fd5b600073ffffffffffffffffffffffffffffffffffffffff82169050919050565b60006117b58261178a565b9050919050565b6117c5816117aa565b81146117d057600080fd5b50565b6000813590506117e2816117bc565b92915050565b6000602082840312156117fe576117fd611780565b5b600061180c848285016117d3565b91505092915050565b61181e816117aa565b82525050565b60006020820190506118396000830184611815565b92915050565b611848816117aa565b82525050565b602082016000820151611864600085018261183f565b50505050565b600060208201905061187f600083018461184e565b92915050565b600081519050919050565b600082825260208201905092915050565b60005b838110156118bf5780820151818401526020810190506118a4565b60008484015250505050565b6000601f19601f8301169050919050565b60006118e782611885565b6118f18185611890565b93506119018185602086016118a1565b61190a816118cb565b840191505092915050565b6000602082019050818103600083015261192f81846118dc565b905092915050565b600080fd5b600080fd5b7f4e487b7100000000000000000000000000000000000000000000000000000000600052604160045260246000fd5b611979826118cb565b810181811067ffffffffffffffff8211171561199857611997611941565b5b80604052505050565b60006119ab611776565b90506119b78282611970565b919050565b600067ffffffffffffffff8211156119d7576119d6611941565b5b6119e0826118cb565b9050602081019050919050565b82818337600083830152505050565b6000611a0f611a0a846119bc565b6119a1565b905082815260208101848484011115611a2b57611a2a61193c565b5b611a368482856119ed565b509392505050565b600082601f830112611a5357611a52611937565b5b8135611a638482602086016119fc565b91505092915050565b600080600060608486031215611a8557611a84611780565b5b600084013567ffffffffffffffff811115611aa357611aa2611785565b5b611aaf86828701611a3e565b935050602084013567ffffffffffffffff811115611ad057611acf611785565b5b611adc86828701611a3e565b9250506040611aed868287016117d3565b9150509250925092565b60008115159050919050565b611b0c81611af7565b82525050565b6000602082019050611b276000830184611b03565b92915050565b600081519050919050565b600082825260208201905092915050565b6000819050602082019050919050565b600082825260208201905092915050565b6000611b7582611885565b611b7f8185611b59565b9350611b8f8185602086016118a1565b611b98816118cb565b840191505092915050565b6000819050919050565b611bb681611ba3565b82525050565b600060a0830160008301518482036000860152611bd98282611b6a565b91505060208301518482036020860152611bf38282611b6a565b9150506040830151611c08604086018261183f565b506060830151611c1b606086018261183f565b506080830151611c2e6080860182611bad565b508091505092915050565b6000611c458383611bbc565b905092915050565b6000602082019050919050565b6000611c6582611b2d565b611c6f8185611b38565b935083602082028501611c8185611b49565b8060005b85811015611cbd5784840389528151611c9e8582611c39565b9450611ca983611c4d565b925060208a01995050600181019050611c85565b50829750879550505050505092915050565b60006020820190508181036000830152611ce98184611c5a565b905092915050565b600082825260208201905092915050565b6000611d0d82611b2d565b611d178185611cf1565b935083602082028501611d2985611b49565b8060005b85811015611d655784840389528151611d468582611c39565b9450611d5183611c4d565b925060208a01995050600181019050611d2d565b50829750879550505050505092915050565b6000604083016000830151611d8f600086018261183f565b5060208301518482036020860152611da78282611d02565b9150508091505092915050565b60006020820190508181036000830152611dce8184611d77565b905092915050565b7f4e6f74206120646f63746f720000000000000000000000000000000000000000600082015250565b6000611e0c600c83611890565b9150611e1782611dd6565b602082019050919050565b60006020820190508181036000830152611e3b81611dff565b9050919050565b7f53656e646572206973206e6f74206120646f63746f7200000000000000000000600082015250565b6000611e78601683611890565b9150611e8382611e42565b602082019050919050565b60006020820190508181036000830152611ea781611e6b565b9050919050565b7f50617469656e7420646f6573206e6f7420657869737400000000000000000000600082015250565b6000611ee4601683611890565b9150611eef82611eae565b602082019050919050565b60006020820190508181036000830152611f1381611ed7565b9050919050565b7f4e487b7100000000000000000000000000000000000000000000000000000000600052602260045260246000fd5b60006002820490506001821680611f6157607f821691505b602082108103611f7457611f73611f1a565b5b50919050565b60008190508160005260206000209050919050565b60006020601f8301049050919050565b600082821b905092915050565b600060088302611fdc7fffffffffffffffffffffffffffffffffffffffffffffffffffffffffffffffff82611f9f565b611fe68683611f9f565b95508019841693508086168417925050509392505050565b6000819050919050565b600061202361201e61201984611ba3565b611ffe565b611ba3565b9050919050565b6000819050919050565b61203d83612008565b6120516120498261202a565b848454611fac565b825550505050565b600090565b612066612059565b612071818484612034565b505050565b5b818110156120955761208a60008261205e565b600181019050612077565b5050565b601f8211156120da576120ab81611f7a565b6120b484611f8f565b810160208510156120c3578190505b6120d76120cf85611f8f565b830182612076565b50505b505050565b600082821c905092915050565b60006120fd600019846008026120df565b1980831691505092915050565b600061211683836120ec565b9150826002028217905092915050565b61212f82611885565b67ffffffffffffffff81111561214857612147611941565b5b6121528254611f49565b61215d828285612099565b600060209050601f831160018114612190576000841561217e578287015190505b612188858261210a565b8655506121f0565b601f19841661219e86611f7a565b60005b828110156121c6578489015182556001820191506020850194506020810190506121a1565b868310156121e357848901516121df601f8916826120ec565b8355505b6001600288020188555050505b505050505050565b6000606082019050818103600083015261221281866118dc565b90506122216020830185611815565b61222e6040830184611815565b949350505050565b7f546869732070617469656e7420616c7265616479206578697374732e00000000600082015250565b600061226c601c83611890565b915061227782612236565b602082019050919050565b6000602082019050818103600083015261229b8161225f565b9050919050565b7f5468697320646f63746f7220616c7265616479206578697374732e0000000000600082015250565b60006122d8601b83611890565b91506122e3826122a2565b602082019050919050565b60006020820190508181036000830152612307816122cb565b9050919050565b7f53656e64657220646f6573206e6f742065786973740000000000000000000000600082015250565b6000612344601583611890565b915061234f8261230e565b602082019050919050565b6000602082019050818103600083015261237381612337565b9050919050565b7f4e6f7420612070617469656e7400000000000000000000000000000000000000600082015250565b60006123b0600d83611890565b91506123bb8261237a565b602082019050919050565b600060208201905081810360008301526123df816123a3565b905091905056fea264697066735822122047706e1273cd17255ffc105123a4dedb6777d9933499b38001c8c55173a70a5264736f6c63430008110033",
  "immutableReferences": {},
  "source": "// SPDX-License-Identifier: UNLICENSED\r\npragma solidity ^0.8.0;\r\n\r\ncontract EHR {\r\n    struct Record {\r\n        string cid;\r\n        string fileName;\r\n        address patientId;\r\n        address doctorId;\r\n        uint256 timeAdded;\r\n    }\r\n\r\n    struct Patient {\r\n        address id;\r\n        Record[] records;\r\n    }\r\n\r\n    struct Doctor {\r\n        address id;\r\n    }\r\n\r\n    mapping(address => Patient) public patients;\r\n    mapping(address => Doctor) public doctors;\r\n\r\n    \r\n    // events\r\n    event PatientAdded(address patientId);\r\n    event DoctorAdded(address doctorId);\r\n    event RecordAdded(string cid, address patientId, address doctorId);\r\n\r\n    \r\n    // modifiers\r\n    modifier senderExists() {\r\n        require(\r\n            doctors[msg.sender].id == msg.sender ||\r\n                patients[msg.sender].id == msg.sender,\r\n            \"Sender does not exist\"\r\n        );\r\n        _;\r\n    }\r\n\r\n    modifier patientExists(address patientId) {\r\n        require(patients[patientId].id == patientId, \"Patient does not exist\");\r\n        _;\r\n    }\r\n\r\n    modifier senderIsDoctor() {\r\n        require(doctors[msg.sender].id == msg.sender, \"Sender is not a doctor\");\r\n        _;\r\n    }\r\n\r\n    \r\n    // Patient Functions\r\n    function addPatient(address _patientId) public senderIsDoctor {\r\n        require(\r\n            patients[_patientId].id != _patientId,\r\n            \"This patient already exists.\"\r\n        );\r\n        patients[_patientId].id = _patientId;\r\n\r\n        emit PatientAdded(_patientId);\r\n    }\r\n\r\n    function getPatient(\r\n        address _patientId\r\n    ) public view returns (Patient memory) {\r\n        if (patients[_patientId].id != _patientId) revert(\"Not a patient\");\r\n\r\n        return patients[_patientId];\r\n    }\r\n\r\n    function getPatientExists(\r\n        address _patientId\r\n    ) public view senderIsDoctor returns (bool) {\r\n        return patients[_patientId].id == _patientId;\r\n    }\r\n\r\n    \r\n    // Doctor Functions\r\n    function addDoctor() public {\r\n        require(\r\n            doctors[msg.sender].id != msg.sender,\r\n            \"This doctor already exists.\"\r\n        );\r\n        doctors[msg.sender].id = msg.sender;\r\n\r\n        emit DoctorAdded(msg.sender);\r\n    }\r\n\r\n    function getDoctor(address _doctorId) public view returns (Doctor memory) {\r\n        if (doctors[_doctorId].id != _doctorId) revert(\"Not a doctor\");\r\n\r\n        return doctors[_doctorId];\r\n    }\r\n\r\n    \r\n    // Record Functions\r\n    function addRecord(\r\n        string memory _cid,\r\n        string memory _fileName,\r\n        address _patientId\r\n    ) public senderIsDoctor patientExists(_patientId) {\r\n        Record memory record = Record(\r\n            _cid,\r\n            _fileName,\r\n            _patientId,\r\n            msg.sender,\r\n            block.timestamp\r\n        );\r\n        patients[_patientId].records.push(record);\r\n\r\n        emit RecordAdded(_cid, _patientId, msg.sender);\r\n    }\r\n\r\n    function getRecords(\r\n        address _patientId\r\n    )\r\n        public\r\n        view\r\n        senderExists\r\n        patientExists(_patientId)\r\n        returns (Record[] memory)\r\n    {\r\n        return patients[_patientId].records;\r\n    }\r\n\r\n    \r\n    // Utils\r\n    function getSenderRole() public view returns (string memory) {\r\n        if (doctors[msg.sender].id == msg.sender) {\r\n            return \"doctor\";\r\n        } else if (patients[msg.sender].id == msg.sender) {\r\n            return \"patient\";\r\n        } else {\r\n            return \"unknown\";\r\n        }\r\n    }\r\n}\r\n",
  "sourcePath": "E:\\Projects\\MobiCare\\backend\\GP_BE_ROSHETA\\contracts\\EHR.sol",
  "compiler": {
    "name": "solc",
    "version": "0.8.17+commit.8df45f5f.Emscripten.clang"
  },
  "schemaVersion": "3.4.12",
  "updatedAt": "2023-04-06T19:45:25.457Z",
  "networkType": "ethereum",
  "devdoc": {
    "kind": "dev",
    "methods": {},
    "version": 1
  },
  "userdoc": {
    "kind": "user",
    "methods": {},
    "version": 1
  }
}